{
  "_format": "hh-sol-artifact-1",
  "contractName": "MomentFactory",
  "sourceName": "contracts/MomentFactory.sol",
  "abi": [
    {
      "inputs": [
        {
          "internalType": "address",
          "name": "_implementation",
          "type": "address"
        }
      ],
      "stateMutability": "nonpayable",
      "type": "constructor"
    },
    {
      "inputs": [],
      "name": "ERC1167FailedCreateClone",
      "type": "error"
    },
    {
      "inputs": [
        {
          "internalType": "uint256",
          "name": "maxSupply",
          "type": "uint256"
        },
        {
          "internalType": "address",
          "name": "admin",
          "type": "address"
        },
        {
          "internalType": "contract IERC20",
          "name": "rewardToken",
          "type": "address"
        },
        {
          "internalType": "uint256",
          "name": "totalReward",
          "type": "uint256"
        }
      ],
      "name": "createBounty",
      "outputs": [
        {
          "internalType": "address",
          "name": "",
          "type": "address"
        }
      ],
      "stateMutability": "nonpayable",
      "type": "function"
    },
    {
      "inputs": [],
      "name": "implementation",
      "outputs": [
        {
          "internalType": "address",
          "name": "",
          "type": "address"
        }
      ],
      "stateMutability": "view",
      "type": "function"
    }
  ],
  "bytecode": "0x608060405234801561001057600080fd5b50604051610571380380610571833981810160405281019061003291906100db565b806000806101000a81548173ffffffffffffffffffffffffffffffffffffffff021916908373ffffffffffffffffffffffffffffffffffffffff16021790555050610108565b600080fd5b600073ffffffffffffffffffffffffffffffffffffffff82169050919050565b60006100a88261007d565b9050919050565b6100b88161009d565b81146100c357600080fd5b50565b6000815190506100d5816100af565b92915050565b6000602082840312156100f1576100f0610078565b5b60006100ff848285016100c6565b91505092915050565b61045a806101176000396000f3fe608060405234801561001057600080fd5b50600436106100365760003560e01c80635c60da1b1461003b578063b22b8dd714610059575b600080fd5b610043610089565b604051610050919061024a565b60405180910390f35b610073600480360381019061006e919061030a565b6100ad565b604051610080919061024a565b60405180910390f35b60008054906101000a900473ffffffffffffffffffffffffffffffffffffffff1681565b6000806100d960008054906101000a900473ffffffffffffffffffffffffffffffffffffffff16610158565b90508073ffffffffffffffffffffffffffffffffffffffff1663e37259e9878787876040518563ffffffff1660e01b815260040161011a94939291906103df565b600060405180830381600087803b15801561013457600080fd5b505af1158015610148573d6000803e3d6000fd5b5050505080915050949350505050565b6000763d602d80600a3d3981f3363d3d373d3d3d363d730000008260601b60e81c176000526e5af43d82803e903d91602b57fd5bf38260781b17602052603760096000f09050600073ffffffffffffffffffffffffffffffffffffffff168173ffffffffffffffffffffffffffffffffffffffff1603610204576040517fc2f868f400000000000000000000000000000000000000000000000000000000815260040160405180910390fd5b919050565b600073ffffffffffffffffffffffffffffffffffffffff82169050919050565b600061023482610209565b9050919050565b61024481610229565b82525050565b600060208201905061025f600083018461023b565b92915050565b600080fd5b6000819050919050565b61027d8161026a565b811461028857600080fd5b50565b60008135905061029a81610274565b92915050565b6102a981610229565b81146102b457600080fd5b50565b6000813590506102c6816102a0565b92915050565b60006102d782610229565b9050919050565b6102e7816102cc565b81146102f257600080fd5b50565b600081359050610304816102de565b92915050565b6000806000806080858703121561032457610323610265565b5b60006103328782880161028b565b9450506020610343878288016102b7565b9350506040610354878288016102f5565b92505060606103658782880161028b565b91505092959194509250565b61037a8161026a565b82525050565b6000819050919050565b60006103a56103a061039b84610209565b610380565b610209565b9050919050565b60006103b78261038a565b9050919050565b60006103c9826103ac565b9050919050565b6103d9816103be565b82525050565b60006080820190506103f46000830187610371565b610401602083018661023b565b61040e60408301856103d0565b61041b6060830184610371565b9594505050505056fea2646970667358221220eac6ee3112c9a9dcd7330f381b49a1b95e691825e1520cb65213723488b770c064736f6c63430008180033",
  "linkReferences": {},
  "deployedLinkReferences": {}
}