{
  "_format": "hh-sol-artifact-1",
  "contractName": "MomentNFT",
  "sourceName": "contracts/MomentNFT.sol",
  "abi": [
    {
      "inputs": [],
      "stateMutability": "nonpayable",
      "type": "constructor"
    },
    {
      "inputs": [],
      "name": "AccessControlBadConfirmation",
      "type": "error"
    },
    {
      "inputs": [
        {
          "internalType": "address",
          "name": "account",
          "type": "address"
        },
        {
          "internalType": "bytes32",
          "name": "neededRole",
          "type": "bytes32"
        }
      ],
      "name": "AccessControlUnauthorizedAccount",
      "type": "error"
    },
    {
      "inputs": [
        {
          "internalType": "address",
          "name": "sender",
          "type": "address"
        },
        {
          "internalType": "uint256",
          "name": "tokenId",
          "type": "uint256"
        },
        {
          "internalType": "address",
          "name": "owner",
          "type": "address"
        }
      ],
      "name": "ERC721IncorrectOwner",
      "type": "error"
    },
    {
      "inputs": [
        {
          "internalType": "address",
          "name": "operator",
          "type": "address"
        },
        {
          "internalType": "uint256",
          "name": "tokenId",
          "type": "uint256"
        }
      ],
      "name": "ERC721InsufficientApproval",
      "type": "error"
    },
    {
      "inputs": [
        {
          "internalType": "address",
          "name": "approver",
          "type": "address"
        }
      ],
      "name": "ERC721InvalidApprover",
      "type": "error"
    },
    {
      "inputs": [
        {
          "internalType": "address",
          "name": "operator",
          "type": "address"
        }
      ],
      "name": "ERC721InvalidOperator",
      "type": "error"
    },
    {
      "inputs": [
        {
          "internalType": "address",
          "name": "owner",
          "type": "address"
        }
      ],
      "name": "ERC721InvalidOwner",
      "type": "error"
    },
    {
      "inputs": [
        {
          "internalType": "address",
          "name": "receiver",
          "type": "address"
        }
      ],
      "name": "ERC721InvalidReceiver",
      "type": "error"
    },
    {
      "inputs": [
        {
          "internalType": "address",
          "name": "sender",
          "type": "address"
        }
      ],
      "name": "ERC721InvalidSender",
      "type": "error"
    },
    {
      "inputs": [
        {
          "internalType": "uint256",
          "name": "tokenId",
          "type": "uint256"
        }
      ],
      "name": "ERC721NonexistentToken",
      "type": "error"
    },
    {
      "inputs": [],
      "name": "InvalidInitialization",
      "type": "error"
    },
    {
      "inputs": [],
      "name": "NotInitializing",
      "type": "error"
    },
    {
      "anonymous": false,
      "inputs": [
        {
          "indexed": true,
          "internalType": "address",
          "name": "owner",
          "type": "address"
        },
        {
          "indexed": true,
          "internalType": "address",
          "name": "approved",
          "type": "address"
        },
        {
          "indexed": true,
          "internalType": "uint256",
          "name": "tokenId",
          "type": "uint256"
        }
      ],
      "name": "Approval",
      "type": "event"
    },
    {
      "anonymous": false,
      "inputs": [
        {
          "indexed": true,
          "internalType": "address",
          "name": "owner",
          "type": "address"
        },
        {
          "indexed": true,
          "internalType": "address",
          "name": "operator",
          "type": "address"
        },
        {
          "indexed": false,
          "internalType": "bool",
          "name": "approved",
          "type": "bool"
        }
      ],
      "name": "ApprovalForAll",
      "type": "event"
    },
    {
      "anonymous": false,
      "inputs": [
        {
          "indexed": false,
          "internalType": "uint256",
          "name": "_fromTokenId",
          "type": "uint256"
        },
        {
          "indexed": false,
          "internalType": "uint256",
          "name": "_toTokenId",
          "type": "uint256"
        }
      ],
      "name": "BatchMetadataUpdate",
      "type": "event"
    },
    {
      "anonymous": false,
      "inputs": [
        {
          "indexed": false,
          "internalType": "uint64",
          "name": "version",
          "type": "uint64"
        }
      ],
      "name": "Initialized",
      "type": "event"
    },
    {
      "anonymous": false,
      "inputs": [
        {
          "indexed": false,
          "internalType": "uint256",
          "name": "_tokenId",
          "type": "uint256"
        }
      ],
      "name": "MetadataUpdate",
      "type": "event"
    },
    {
      "anonymous": false,
      "inputs": [
        {
          "indexed": true,
          "internalType": "address",
          "name": "addr",
          "type": "address"
        },
        {
          "indexed": false,
          "internalType": "uint96",
          "name": "score",
          "type": "uint96"
        }
      ],
      "name": "ParticipantAdded",
      "type": "event"
    },
    {
      "anonymous": false,
      "inputs": [
        {
          "indexed": true,
          "internalType": "bytes32",
          "name": "role",
          "type": "bytes32"
        },
        {
          "indexed": true,
          "internalType": "bytes32",
          "name": "previousAdminRole",
          "type": "bytes32"
        },
        {
          "indexed": true,
          "internalType": "bytes32",
          "name": "newAdminRole",
          "type": "bytes32"
        }
      ],
      "name": "RoleAdminChanged",
      "type": "event"
    },
    {
      "anonymous": false,
      "inputs": [
        {
          "indexed": true,
          "internalType": "bytes32",
          "name": "role",
          "type": "bytes32"
        },
        {
          "indexed": true,
          "internalType": "address",
          "name": "account",
          "type": "address"
        },
        {
          "indexed": true,
          "internalType": "address",
          "name": "sender",
          "type": "address"
        }
      ],
      "name": "RoleGranted",
      "type": "event"
    },
    {
      "anonymous": false,
      "inputs": [
        {
          "indexed": true,
          "internalType": "bytes32",
          "name": "role",
          "type": "bytes32"
        },
        {
          "indexed": true,
          "internalType": "address",
          "name": "account",
          "type": "address"
        },
        {
          "indexed": true,
          "internalType": "address",
          "name": "sender",
          "type": "address"
        }
      ],
      "name": "RoleRevoked",
      "type": "event"
    },
    {
      "anonymous": false,
      "inputs": [
        {
          "indexed": true,
          "internalType": "address",
          "name": "from",
          "type": "address"
        },
        {
          "indexed": true,
          "internalType": "address",
          "name": "to",
          "type": "address"
        },
        {
          "indexed": true,
          "internalType": "uint256",
          "name": "tokenId",
          "type": "uint256"
        }
      ],
      "name": "Transfer",
      "type": "event"
    },
    {
      "inputs": [],
      "name": "DEFAULT_ADMIN_ROLE",
      "outputs": [
        {
          "internalType": "bytes32",
          "name": "",
          "type": "bytes32"
        }
      ],
      "stateMutability": "view",
      "type": "function"
    },
    {
      "inputs": [],
      "name": "SCORE_DENOMINATOR",
      "outputs": [
        {
          "internalType": "uint256",
          "name": "",
          "type": "uint256"
        }
      ],
      "stateMutability": "view",
      "type": "function"
    },
    {
      "inputs": [
        {
          "internalType": "address",
          "name": "to",
          "type": "address"
        },
        {
          "internalType": "uint256",
          "name": "tokenId",
          "type": "uint256"
        }
      ],
      "name": "approve",
      "outputs": [],
      "stateMutability": "nonpayable",
      "type": "function"
    },
    {
      "inputs": [
        {
          "internalType": "address",
          "name": "owner",
          "type": "address"
        }
      ],
      "name": "balanceOf",
      "outputs": [
        {
          "internalType": "uint256",
          "name": "",
          "type": "uint256"
        }
      ],
      "stateMutability": "view",
      "type": "function"
    },
    {
      "inputs": [],
      "name": "contestHasEnded",
      "outputs": [
        {
          "internalType": "bool",
          "name": "",
          "type": "bool"
        }
      ],
      "stateMutability": "view",
      "type": "function"
    },
    {
      "inputs": [],
      "name": "cumulativeScore",
      "outputs": [
        {
          "internalType": "uint256",
          "name": "",
          "type": "uint256"
        }
      ],
      "stateMutability": "view",
      "type": "function"
    },
    {
      "inputs": [],
      "name": "currentSupply",
      "outputs": [
        {
          "internalType": "uint256",
          "name": "",
          "type": "uint256"
        }
      ],
      "stateMutability": "view",
      "type": "function"
    },
    {
      "inputs": [],
      "name": "distributeRewards",
      "outputs": [],
      "stateMutability": "nonpayable",
      "type": "function"
    },
    {
      "inputs": [],
      "name": "endContest",
      "outputs": [],
      "stateMutability": "nonpayable",
      "type": "function"
    },
    {
      "inputs": [
        {
          "internalType": "uint256",
          "name": "tokenId",
          "type": "uint256"
        }
      ],
      "name": "getApproved",
      "outputs": [
        {
          "internalType": "address",
          "name": "",
          "type": "address"
        }
      ],
      "stateMutability": "view",
      "type": "function"
    },
    {
      "inputs": [
        {
          "internalType": "bytes32",
          "name": "role",
          "type": "bytes32"
        }
      ],
      "name": "getRoleAdmin",
      "outputs": [
        {
          "internalType": "bytes32",
          "name": "",
          "type": "bytes32"
        }
      ],
      "stateMutability": "view",
      "type": "function"
    },
    {
      "inputs": [
        {
          "internalType": "bytes32",
          "name": "role",
          "type": "bytes32"
        },
        {
          "internalType": "address",
          "name": "account",
          "type": "address"
        }
      ],
      "name": "grantRole",
      "outputs": [],
      "stateMutability": "nonpayable",
      "type": "function"
    },
    {
      "inputs": [
        {
          "internalType": "bytes32",
          "name": "role",
          "type": "bytes32"
        },
        {
          "internalType": "address",
          "name": "account",
          "type": "address"
        }
      ],
      "name": "hasRole",
      "outputs": [
        {
          "internalType": "bool",
          "name": "",
          "type": "bool"
        }
      ],
      "stateMutability": "view",
      "type": "function"
    },
    {
      "inputs": [
        {
          "internalType": "uint256",
          "name": "maxSupply_",
          "type": "uint256"
        },
        {
          "internalType": "address",
          "name": "admin",
          "type": "address"
        },
        {
          "internalType": "contract IERC20",
          "name": "rewardToken_",
          "type": "address"
        },
        {
          "internalType": "uint256",
          "name": "totalReward_",
          "type": "uint256"
        }
      ],
      "name": "initialize",
      "outputs": [],
      "stateMutability": "nonpayable",
      "type": "function"
    },
    {
      "inputs": [
        {
          "internalType": "address",
          "name": "owner",
          "type": "address"
        },
        {
          "internalType": "address",
          "name": "operator",
          "type": "address"
        }
      ],
      "name": "isApprovedForAll",
      "outputs": [
        {
          "internalType": "bool",
          "name": "",
          "type": "bool"
        }
      ],
      "stateMutability": "view",
      "type": "function"
    },
    {
      "inputs": [],
      "name": "maxSupply",
      "outputs": [
        {
          "internalType": "uint256",
          "name": "",
          "type": "uint256"
        }
      ],
      "stateMutability": "view",
      "type": "function"
    },
    {
      "inputs": [
        {
          "internalType": "address",
          "name": "to",
          "type": "address"
        },
        {
          "internalType": "string",
          "name": "imageURI",
          "type": "string"
        },
        {
          "internalType": "uint96",
          "name": "score",
          "type": "uint96"
        }
      ],
      "name": "mint",
      "outputs": [],
      "stateMutability": "nonpayable",
      "type": "function"
    },
    {
      "inputs": [],
      "name": "name",
      "outputs": [
        {
          "internalType": "string",
          "name": "",
          "type": "string"
        }
      ],
      "stateMutability": "view",
      "type": "function"
    },
    {
      "inputs": [
        {
          "internalType": "uint256",
          "name": "tokenId",
          "type": "uint256"
        }
      ],
      "name": "ownerOf",
      "outputs": [
        {
          "internalType": "address",
          "name": "",
          "type": "address"
        }
      ],
      "stateMutability": "view",
      "type": "function"
    },
    {
      "inputs": [
        {
          "internalType": "uint256",
          "name": "",
          "type": "uint256"
        }
      ],
      "name": "participants",
      "outputs": [
        {
          "internalType": "address",
          "name": "addr",
          "type": "address"
        },
        {
          "internalType": "uint96",
          "name": "score",
          "type": "uint96"
        }
      ],
      "stateMutability": "view",
      "type": "function"
    },
    {
      "inputs": [
        {
          "internalType": "address",
          "name": "to",
          "type": "address"
        },
        {
          "internalType": "uint256",
          "name": "amount",
          "type": "uint256"
        }
      ],
      "name": "recoverTokens",
      "outputs": [],
      "stateMutability": "nonpayable",
      "type": "function"
    },
    {
      "inputs": [
        {
          "internalType": "bytes32",
          "name": "role",
          "type": "bytes32"
        },
        {
          "internalType": "address",
          "name": "callerConfirmation",
          "type": "address"
        }
      ],
      "name": "renounceRole",
      "outputs": [],
      "stateMutability": "nonpayable",
      "type": "function"
    },
    {
      "inputs": [
        {
          "internalType": "bytes32",
          "name": "role",
          "type": "bytes32"
        },
        {
          "internalType": "address",
          "name": "account",
          "type": "address"
        }
      ],
      "name": "revokeRole",
      "outputs": [],
      "stateMutability": "nonpayable",
      "type": "function"
    },
    {
      "inputs": [],
      "name": "rewardToken",
      "outputs": [
        {
          "internalType": "contract IERC20",
          "name": "",
          "type": "address"
        }
      ],
      "stateMutability": "view",
      "type": "function"
    },
    {
      "inputs": [
        {
          "internalType": "address",
          "name": "from",
          "type": "address"
        },
        {
          "internalType": "address",
          "name": "to",
          "type": "address"
        },
        {
          "internalType": "uint256",
          "name": "tokenId",
          "type": "uint256"
        }
      ],
      "name": "safeTransferFrom",
      "outputs": [],
      "stateMutability": "nonpayable",
      "type": "function"
    },
    {
      "inputs": [
        {
          "internalType": "address",
          "name": "from",
          "type": "address"
        },
        {
          "internalType": "address",
          "name": "to",
          "type": "address"
        },
        {
          "internalType": "uint256",
          "name": "tokenId",
          "type": "uint256"
        },
        {
          "internalType": "bytes",
          "name": "data",
          "type": "bytes"
        }
      ],
      "name": "safeTransferFrom",
      "outputs": [],
      "stateMutability": "nonpayable",
      "type": "function"
    },
    {
      "inputs": [
        {
          "internalType": "address",
          "name": "operator",
          "type": "address"
        },
        {
          "internalType": "bool",
          "name": "approved",
          "type": "bool"
        }
      ],
      "name": "setApprovalForAll",
      "outputs": [],
      "stateMutability": "nonpayable",
      "type": "function"
    },
    {
      "inputs": [
        {
          "internalType": "bytes4",
          "name": "interfaceId",
          "type": "bytes4"
        }
      ],
      "name": "supportsInterface",
      "outputs": [
        {
          "internalType": "bool",
          "name": "",
          "type": "bool"
        }
      ],
      "stateMutability": "view",
      "type": "function"
    },
    {
      "inputs": [],
      "name": "symbol",
      "outputs": [
        {
          "internalType": "string",
          "name": "",
          "type": "string"
        }
      ],
      "stateMutability": "view",
      "type": "function"
    },
    {
      "inputs": [
        {
          "internalType": "uint256",
          "name": "tokenId",
          "type": "uint256"
        }
      ],
      "name": "tokenURI",
      "outputs": [
        {
          "internalType": "string",
          "name": "",
          "type": "string"
        }
      ],
      "stateMutability": "view",
      "type": "function"
    },
    {
      "inputs": [],
      "name": "totalReward",
      "outputs": [
        {
          "internalType": "uint256",
          "name": "",
          "type": "uint256"
        }
      ],
      "stateMutability": "view",
      "type": "function"
    },
    {
      "inputs": [
        {
          "internalType": "address",
          "name": "from",
          "type": "address"
        },
        {
          "internalType": "address",
          "name": "to",
          "type": "address"
        },
        {
          "internalType": "uint256",
          "name": "tokenId",
          "type": "uint256"
        }
      ],
      "name": "transferFrom",
      "outputs": [],
      "stateMutability": "nonpayable",
      "type": "function"
    },
    {
      "inputs": [
        {
          "internalType": "address",
          "name": "participant",
          "type": "address"
        }
      ],
      "name": "wasRewarded",
      "outputs": [
        {
          "internalType": "bool",
          "name": "receivedReward",
          "type": "bool"
        }
      ],
      "stateMutability": "view",
      "type": "function"
    }
  ],
  "bytecode": "0x60806040523480156200001157600080fd5b50620000226200002860201b60201c565b6200019c565b60006200003a6200013260201b60201c565b90508060000160089054906101000a900460ff161562000086576040517ff92ee8a900000000000000000000000000000000000000000000000000000000815260040160405180910390fd5b67ffffffffffffffff80168160000160009054906101000a900467ffffffffffffffff1667ffffffffffffffff16146200012f5767ffffffffffffffff8160000160006101000a81548167ffffffffffffffff021916908367ffffffffffffffff1602179055507fc7f505b2f371ae2175ee4913f4499e1f2633a7b5936321eed1cdaeb6115181d267ffffffffffffffff6040516200012691906200017f565b60405180910390a15b50565b60007ff0c57e16840df040f15088dc2f81fe391c3923bec73e23a9662efc9c229c6a00905090565b600067ffffffffffffffff82169050919050565b62000179816200015a565b82525050565b60006020820190506200019660008301846200016e565b92915050565b613ee380620001ac6000396000f3fe608060405234801561001057600080fd5b50600436106101fb5760003560e01c8063750142e61161011a578063b88d4fde116100ad578063d5abeb011161007c578063d5abeb01146105af578063e37259e9146105cd578063e985e9c5146105e9578063f7c618c114610619578063fc0e46fc14610637576101fb565b8063b88d4fde1461053d578063c1ec478014610559578063c87b56dd14610563578063d547741f14610593576101fb565b806395d89b41116100e957806395d89b41146104c7578063a217fddf146104e5578063a22cb46514610503578063b666566b1461051f576101fb565b8063750142e61461043f578063771282f61461045d5780637b17b7a81461047b57806391d1485414610497576101fb565b8063248a9ca31161019257806342842e0e1161016157806342842e0e146103b95780636352211e146103d55780636f4a2cd01461040557806370a082311461040f576101fb565b8063248a9ca3146103205780632f2ff15d1461035057806335c1d3491461036c57806336568abe1461039d576101fb565b8063095ea7b3116101ce578063095ea7b31461029a5780630f498336146102b65780631133678c146102e657806323b872dd14610304576101fb565b806301ffc9a714610200578063069c9fae1461023057806306fdde031461024c578063081812fc1461026a575b600080fd5b61021a60048036038101906102159190612c16565b610655565b6040516102279190612c5e565b60405180910390f35b61024a60048036038101906102459190612d0d565b610667565b005b610254610718565b6040516102619190612ddd565b60405180910390f35b610284600480360381019061027f9190612dff565b6107b9565b6040516102919190612e3b565b60405180910390f35b6102b460048036038101906102af9190612d0d565b6107d5565b005b6102d060048036038101906102cb9190612e56565b6107eb565b6040516102dd9190612c5e565b60405180910390f35b6102ee61080b565b6040516102fb9190612c5e565b60405180910390f35b61031e60048036038101906103199190612e83565b610819565b005b61033a60048036038101906103359190612f0c565b61091b565b6040516103479190612f48565b60405180910390f35b61036a60048036038101906103659190612f63565b610949565b005b61038660048036038101906103819190612dff565b61096b565b604051610394929190612fca565b60405180910390f35b6103b760048036038101906103b29190612f63565b6109d3565b005b6103d360048036038101906103ce9190612e83565b610a4e565b005b6103ef60048036038101906103ea9190612dff565b610a6e565b6040516103fc9190612e3b565b60405180910390f35b61040d610a80565b005b61042960048036038101906104249190612e56565b610dfd565b6040516104369190613002565b60405180910390f35b610447610ec6565b6040516104549190613002565b60405180910390f35b610465610ecc565b6040516104729190613002565b60405180910390f35b6104956004803603810190610490919061317e565b610ed2565b005b6104b160048036038101906104ac9190612f63565b611146565b6040516104be9190612c5e565b60405180910390f35b6104cf6111bf565b6040516104dc9190612ddd565b60405180910390f35b6104ed611260565b6040516104fa9190612f48565b60405180910390f35b61051d60048036038101906105189190613219565b611267565b005b61052761127d565b6040516105349190613002565b60405180910390f35b610557600480360381019061055291906132fa565b611283565b005b6105616112a0565b005b61057d60048036038101906105789190612dff565b611301565b60405161058a9190612ddd565b60405180910390f35b6105ad60048036038101906105a89190612f63565b611425565b005b6105b7611447565b6040516105c49190613002565b60405180910390f35b6105e760048036038101906105e291906133bb565b61144d565b005b61060360048036038101906105fe9190613422565b6116b6565b6040516106109190612c5e565b60405180910390f35b610621611758565b60405161062e91906134c1565b60405180910390f35b61063f61177c565b60405161064c9190613002565b60405180910390f35b600061066082611782565b9050919050565b6000801b610674816117e3565b60008054906101000a900473ffffffffffffffffffffffffffffffffffffffff1673ffffffffffffffffffffffffffffffffffffffff1663a9059cbb84846040518363ffffffff1660e01b81526004016106cf9291906134dc565b6020604051808303816000875af11580156106ee573d6000803e3d6000fd5b505050506040513d601f19601f82011682018060405250810190610712919061351a565b50505050565b606060006107246117f7565b905080600001805461073590613576565b80601f016020809104026020016040519081016040528092919081815260200182805461076190613576565b80156107ae5780601f10610783576101008083540402835291602001916107ae565b820191906000526020600020905b81548152906001019060200180831161079157829003601f168201915b505050505091505090565b60006107c48261181f565b506107ce826118a7565b9050919050565b6107e782826107e26118f2565b6118fa565b5050565b60066020528060005260406000206000915054906101000a900460ff1681565b600060025460035414905090565b600073ffffffffffffffffffffffffffffffffffffffff168273ffffffffffffffffffffffffffffffffffffffff160361088b5760006040517f64a0ae920000000000000000000000000000000000000000000000000000000081526004016108829190612e3b565b60405180910390fd5b600061089f838361089a6118f2565b61190c565b90508373ffffffffffffffffffffffffffffffffffffffff168173ffffffffffffffffffffffffffffffffffffffff1614610915578382826040517f64283d7b00000000000000000000000000000000000000000000000000000000815260040161090c939291906135a7565b60405180910390fd5b50505050565b600080610926611b39565b905080600001600084815260200190815260200160002060010154915050919050565b6109528261091b565b61095b816117e3565b6109658383611b61565b50505050565b6005818154811061097b57600080fd5b906000526020600020016000915090508060000160009054906101000a900473ffffffffffffffffffffffffffffffffffffffff16908060000160149054906101000a90046bffffffffffffffffffffffff16905082565b6109db6118f2565b73ffffffffffffffffffffffffffffffffffffffff168173ffffffffffffffffffffffffffffffffffffffff1614610a3f576040517f6697b23200000000000000000000000000000000000000000000000000000000815260040160405180910390fd5b610a498282611c62565b505050565b610a6983838360405180602001604052806000815250611283565b505050565b6000610a798261181f565b9050919050565b610a8861080b565b610ac7576040517f08c379a0000000000000000000000000000000000000000000000000000000008152600401610abe9061362a565b60405180910390fd5b60008054906101000a900473ffffffffffffffffffffffffffffffffffffffff1673ffffffffffffffffffffffffffffffffffffffff166370a08231306040518263ffffffff1660e01b8152600401610b209190612e3b565b602060405180830381865afa158015610b3d573d6000803e3d6000fd5b505050506040513d601f19601f82011682018060405250810190610b61919061365f565b6001541115610ba5576040517f08c379a0000000000000000000000000000000000000000000000000000000008152600401610b9c906136d8565b60405180910390fd5b6000600580549050905060005b81811015610df957600060058281548110610bd057610bcf6136f8565b5b9060005260206000200160000160009054906101000a900473ffffffffffffffffffffffffffffffffffffffff169050600660008273ffffffffffffffffffffffffffffffffffffffff1673ffffffffffffffffffffffffffffffffffffffff16815260200190815260200160002060009054906101000a900460ff1615610c8d576040517f08c379a0000000000000000000000000000000000000000000000000000000008152600401610c8490613773565b60405180910390fd5b6001600660008373ffffffffffffffffffffffffffffffffffffffff1673ffffffffffffffffffffffffffffffffffffffff16815260200190815260200160002060006101000a81548160ff021916908315150217905550600060045460015460058581548110610d0157610d006136f8565b5b9060005260206000200160000160149054906101000a90046bffffffffffffffffffffffff166bffffffffffffffffffffffff16610d3f91906137c2565b610d499190613833565b905060008054906101000a900473ffffffffffffffffffffffffffffffffffffffff1673ffffffffffffffffffffffffffffffffffffffff1663a9059cbb83836040518363ffffffff1660e01b8152600401610da69291906134dc565b6020604051808303816000875af1158015610dc5573d6000803e3d6000fd5b505050506040513d601f19601f82011682018060405250810190610de9919061351a565b5050508080600101915050610bb2565b5050565b600080610e086117f7565b9050600073ffffffffffffffffffffffffffffffffffffffff168373ffffffffffffffffffffffffffffffffffffffff1603610e7c5760006040517f89c62b64000000000000000000000000000000000000000000000000000000008152600401610e739190612e3b565b60405180910390fd5b8060030160008473ffffffffffffffffffffffffffffffffffffffff1673ffffffffffffffffffffffffffffffffffffffff16815260200190815260200160002054915050919050565b60015481565b60035481565b6000801b610edf816117e3565b612710826bffffffffffffffffffffffff161115610f32576040517f08c379a0000000000000000000000000000000000000000000000000000000008152600401610f29906138b0565b60405180910390fd5b60025460035410610f78576040517f08c379a0000000000000000000000000000000000000000000000000000000008152600401610f6f9061391c565b60405180910390fd5b6000835111610fbc576040517f08c379a0000000000000000000000000000000000000000000000000000000008152600401610fb390613988565b60405180910390fd5b60006001600354610fcd91906139a8565b9050610fd98185611d64565b610fe38582611dcf565b80600381905550600560405180604001604052808773ffffffffffffffffffffffffffffffffffffffff168152602001856bffffffffffffffffffffffff168152509080600181540180825580915050600190039060005260206000200160009091909190915060008201518160000160006101000a81548173ffffffffffffffffffffffffffffffffffffffff021916908373ffffffffffffffffffffffffffffffffffffffff16021790555060208201518160000160146101000a8154816bffffffffffffffffffffffff02191690836bffffffffffffffffffffffff1602179055505050826bffffffffffffffffffffffff16600460008282546110ea91906139a8565b925050819055508473ffffffffffffffffffffffffffffffffffffffff167fe18fa0c02d2ab894923163d9b3ffd80544cfe9d531cf5099c15cc8012b38ab188460405161113791906139dc565b60405180910390a25050505050565b600080611151611b39565b905080600001600085815260200190815260200160002060000160008473ffffffffffffffffffffffffffffffffffffffff1673ffffffffffffffffffffffffffffffffffffffff16815260200190815260200160002060009054906101000a900460ff1691505092915050565b606060006111cb6117f7565b90508060010180546111dc90613576565b80601f016020809104026020016040519081016040528092919081815260200182805461120890613576565b80156112555780601f1061122a57610100808354040283529160200191611255565b820191906000526020600020905b81548152906001019060200180831161123857829003601f168201915b505050505091505090565b6000801b81565b6112796112726118f2565b8383611ded565b5050565b60045481565b61128e848484610819565b61129a84848484611f6b565b50505050565b6000801b6112ad816117e3565b6112b561080b565b156112f5576040517f08c379a00000000000000000000000000000000000000000000000000000000081526004016112ec90613a43565b60405180910390fd5b60025460038190555050565b6060600061130d612122565b90506113188361181f565b506000816000016000858152602001908152602001600020805461133b90613576565b80601f016020809104026020016040519081016040528092919081815260200182805461136790613576565b80156113b45780601f10611389576101008083540402835291602001916113b4565b820191906000526020600020905b81548152906001019060200180831161139757829003601f168201915b5050505050905060006113c561214a565b905060008151036113db57819350505050611420565b6000825111156114115780826040516020016113f8929190613a9f565b6040516020818303038152906040529350505050611420565b61141a85612161565b93505050505b919050565b61142e8261091b565b611437816117e3565b6114418383611c62565b50505050565b60025481565b60006114576121ca565b905060008160000160089054906101000a900460ff1615905060008260000160009054906101000a900467ffffffffffffffff1690506000808267ffffffffffffffff161480156114a55750825b9050600060018367ffffffffffffffff161480156114da575060003073ffffffffffffffffffffffffffffffffffffffff163b145b9050811580156114e8575080155b1561151f576040517ff92ee8a900000000000000000000000000000000000000000000000000000000815260040160405180910390fd5b60018560000160006101000a81548167ffffffffffffffff021916908367ffffffffffffffff160217905550831561156f5760018560000160086101000a81548160ff0219169083151502179055505b6115e36040518060400160405280600881526020017f4d6f6d656e746f720000000000000000000000000000000000000000000000008152506040518060400160405280600381526020017f4d4f4d00000000000000000000000000000000000000000000000000000000008152506121f2565b6115eb612208565b6115f3612212565b88600281905550866000806101000a81548173ffffffffffffffffffffffffffffffffffffffff021916908373ffffffffffffffffffffffffffffffffffffffff1602179055508560018190555061164e6000801b89611b61565b5083156116ab5760008560000160086101000a81548160ff0219169083151502179055507fc7f505b2f371ae2175ee4913f4499e1f2633a7b5936321eed1cdaeb6115181d260016040516116a29190613b12565b60405180910390a15b505050505050505050565b6000806116c16117f7565b90508060050160008573ffffffffffffffffffffffffffffffffffffffff1673ffffffffffffffffffffffffffffffffffffffff16815260200190815260200160002060008473ffffffffffffffffffffffffffffffffffffffff1673ffffffffffffffffffffffffffffffffffffffff16815260200190815260200160002060009054906101000a900460ff1691505092915050565b60008054906101000a900473ffffffffffffffffffffffffffffffffffffffff1681565b61271081565b6000634906490660e01b7bffffffffffffffffffffffffffffffffffffffffffffffffffffffff1916827bffffffffffffffffffffffffffffffffffffffffffffffffffffffff191614806117dc57506117db8261221c565b5b9050919050565b6117f4816117ef6118f2565b6122fe565b50565b60007f80bb2b638cc20bc4d0a60d66940f3ab4a00c1d7b313497ca82fb0b4ab0079300905090565b60008061182b8361234f565b9050600073ffffffffffffffffffffffffffffffffffffffff168173ffffffffffffffffffffffffffffffffffffffff160361189e57826040517f7e2732890000000000000000000000000000000000000000000000000000000081526004016118959190613002565b60405180910390fd5b80915050919050565b6000806118b26117f7565b905080600401600084815260200190815260200160002060009054906101000a900473ffffffffffffffffffffffffffffffffffffffff16915050919050565b600033905090565b611907838383600161239a565b505050565b6000806119176117f7565b905060006119248561234f565b9050600073ffffffffffffffffffffffffffffffffffffffff168473ffffffffffffffffffffffffffffffffffffffff16146119665761196581858761256e565b5b600073ffffffffffffffffffffffffffffffffffffffff168173ffffffffffffffffffffffffffffffffffffffff16146119f9576119a860008660008061239a565b60018260030160008373ffffffffffffffffffffffffffffffffffffffff1673ffffffffffffffffffffffffffffffffffffffff168152602001908152602001600020600082825403925050819055505b600073ffffffffffffffffffffffffffffffffffffffff168673ffffffffffffffffffffffffffffffffffffffff1614611a7e5760018260030160008873ffffffffffffffffffffffffffffffffffffffff1673ffffffffffffffffffffffffffffffffffffffff168152602001908152602001600020600082825401925050819055505b8582600201600087815260200190815260200160002060006101000a81548173ffffffffffffffffffffffffffffffffffffffff021916908373ffffffffffffffffffffffffffffffffffffffff160217905550848673ffffffffffffffffffffffffffffffffffffffff168273ffffffffffffffffffffffffffffffffffffffff167fddf252ad1be2c89b69c2b068fc378daa952ba7f163c4a11628f55a4df523b3ef60405160405180910390a480925050509392505050565b60007f02dd7bc7dec4dceedda775e58dd541e08a116c6c53815c0bd028192f7b626800905090565b600080611b6c611b39565b9050611b788484611146565b611c5657600181600001600086815260200190815260200160002060000160008573ffffffffffffffffffffffffffffffffffffffff1673ffffffffffffffffffffffffffffffffffffffff16815260200190815260200160002060006101000a81548160ff021916908315150217905550611bf26118f2565b73ffffffffffffffffffffffffffffffffffffffff168373ffffffffffffffffffffffffffffffffffffffff16857f2f8788117e7eff1d82e926ec794901d17c78024a50270940304540a733656f0d60405160405180910390a46001915050611c5c565b60009150505b92915050565b600080611c6d611b39565b9050611c798484611146565b15611d5857600081600001600086815260200190815260200160002060000160008573ffffffffffffffffffffffffffffffffffffffff1673ffffffffffffffffffffffffffffffffffffffff16815260200190815260200160002060006101000a81548160ff021916908315150217905550611cf46118f2565b73ffffffffffffffffffffffffffffffffffffffff168373ffffffffffffffffffffffffffffffffffffffff16857ff6391f5c32d9c69d2a47ea670b442974b53935d1edc7fd64eb21e047a839171b60405160405180910390a46001915050611d5e565b60009150505b92915050565b6000611d6e612122565b9050818160000160008581526020019081526020016000209081611d929190613ccf565b507ff8e1a15aba9398e019f0b49df1a4fde98ee17ae345cb5f6b5e2c27f5033e8ce783604051611dc29190613002565b60405180910390a1505050565b611de9828260405180602001604052806000815250612632565b5050565b6000611df76117f7565b9050600073ffffffffffffffffffffffffffffffffffffffff168373ffffffffffffffffffffffffffffffffffffffff1603611e6a57826040517f5b08ba18000000000000000000000000000000000000000000000000000000008152600401611e619190612e3b565b60405180910390fd5b818160050160008673ffffffffffffffffffffffffffffffffffffffff1673ffffffffffffffffffffffffffffffffffffffff16815260200190815260200160002060008573ffffffffffffffffffffffffffffffffffffffff1673ffffffffffffffffffffffffffffffffffffffff16815260200190815260200160002060006101000a81548160ff0219169083151502179055508273ffffffffffffffffffffffffffffffffffffffff168473ffffffffffffffffffffffffffffffffffffffff167f17307eab39ab6107e8899845ad3d59bd9653f200f220920489ca2b5937696c3184604051611f5d9190612c5e565b60405180910390a350505050565b60008373ffffffffffffffffffffffffffffffffffffffff163b111561211c578273ffffffffffffffffffffffffffffffffffffffff1663150b7a02611faf6118f2565b8685856040518563ffffffff1660e01b8152600401611fd19493929190613df6565b6020604051808303816000875af192505050801561200d57506040513d601f19601f8201168201806040525081019061200a9190613e57565b60015b612091573d806000811461203d576040519150601f19603f3d011682016040523d82523d6000602084013e612042565b606091505b50600081510361208957836040517f64a0ae920000000000000000000000000000000000000000000000000000000081526004016120809190612e3b565b60405180910390fd5b805181602001fd5b63150b7a0260e01b7bffffffffffffffffffffffffffffffffffffffffffffffffffffffff1916817bffffffffffffffffffffffffffffffffffffffffffffffffffffffff19161461211a57836040517f64a0ae920000000000000000000000000000000000000000000000000000000081526004016121119190612e3b565b60405180910390fd5b505b50505050565b60007f0542a41881ee128a365a727b282c86fa859579490b9bb45aab8503648c8e7900905090565b606060405180602001604052806000815250905090565b606061216c8261181f565b50600061217761214a565b9050600081511161219757604051806020016040528060008152506121c2565b806121a18461264e565b6040516020016121b2929190613a9f565b6040516020818303038152906040525b915050919050565b60007ff0c57e16840df040f15088dc2f81fe391c3923bec73e23a9662efc9c229c6a00905090565b6121fa61271c565b612204828261275c565b5050565b61221061271c565b565b61221a61271c565b565b60007f80ac58cd000000000000000000000000000000000000000000000000000000007bffffffffffffffffffffffffffffffffffffffffffffffffffffffff1916827bffffffffffffffffffffffffffffffffffffffffffffffffffffffff191614806122e757507f5b5e139f000000000000000000000000000000000000000000000000000000007bffffffffffffffffffffffffffffffffffffffffffffffffffffffff1916827bffffffffffffffffffffffffffffffffffffffffffffffffffffffff1916145b806122f757506122f682612799565b5b9050919050565b6123088282611146565b61234b5780826040517fe2517d3f000000000000000000000000000000000000000000000000000000008152600401612342929190613e84565b60405180910390fd5b5050565b60008061235a6117f7565b905080600201600084815260200190815260200160002060009054906101000a900473ffffffffffffffffffffffffffffffffffffffff16915050919050565b60006123a46117f7565b905081806123df5750600073ffffffffffffffffffffffffffffffffffffffff168373ffffffffffffffffffffffffffffffffffffffff1614155b156125135760006123ef8561181f565b9050600073ffffffffffffffffffffffffffffffffffffffff168473ffffffffffffffffffffffffffffffffffffffff161415801561245a57508373ffffffffffffffffffffffffffffffffffffffff168173ffffffffffffffffffffffffffffffffffffffff1614155b801561246d575061246b81856116b6565b155b156124af57836040517fa9fbf51f0000000000000000000000000000000000000000000000000000000081526004016124a69190612e3b565b60405180910390fd5b821561251157848673ffffffffffffffffffffffffffffffffffffffff168273ffffffffffffffffffffffffffffffffffffffff167f8c5be1e5ebec7d5bd14f71427d1e84f3dd0314c0f7b2291e5b200ac8c7c3b92560405160405180910390a45b505b8481600401600086815260200190815260200160002060006101000a81548173ffffffffffffffffffffffffffffffffffffffff021916908373ffffffffffffffffffffffffffffffffffffffff1602179055505050505050565b612579838383612813565b61262d57600073ffffffffffffffffffffffffffffffffffffffff168373ffffffffffffffffffffffffffffffffffffffff16036125ee57806040517f7e2732890000000000000000000000000000000000000000000000000000000081526004016125e59190613002565b60405180910390fd5b81816040517f177e802f0000000000000000000000000000000000000000000000000000000081526004016126249291906134dc565b60405180910390fd5b505050565b61263c83836128d4565b6126496000848484611f6b565b505050565b60606000600161265d846129cd565b01905060008167ffffffffffffffff81111561267c5761267b613027565b5b6040519080825280601f01601f1916602001820160405280156126ae5781602001600182028036833780820191505090505b509050600082602001820190505b600115612711578080600190039150507f3031323334353637383961626364656600000000000000000000000000000000600a86061a8153600a858161270557612704613804565b5b049450600085036126bc575b819350505050919050565b612724612b20565b61275a576040517fd7e6bcf800000000000000000000000000000000000000000000000000000000815260040160405180910390fd5b565b61276461271c565b600061276e6117f7565b9050828160000190816127819190613ccf565b50818160010190816127939190613ccf565b50505050565b60007f7965db0b000000000000000000000000000000000000000000000000000000007bffffffffffffffffffffffffffffffffffffffffffffffffffffffff1916827bffffffffffffffffffffffffffffffffffffffffffffffffffffffff1916148061280c575061280b82612b40565b5b9050919050565b60008073ffffffffffffffffffffffffffffffffffffffff168373ffffffffffffffffffffffffffffffffffffffff16141580156128cb57508273ffffffffffffffffffffffffffffffffffffffff168473ffffffffffffffffffffffffffffffffffffffff16148061288c575061288b84846116b6565b5b806128ca57508273ffffffffffffffffffffffffffffffffffffffff166128b2836118a7565b73ffffffffffffffffffffffffffffffffffffffff16145b5b90509392505050565b600073ffffffffffffffffffffffffffffffffffffffff168273ffffffffffffffffffffffffffffffffffffffff16036129465760006040517f64a0ae9200000000000000000000000000000000000000000000000000000000815260040161293d9190612e3b565b60405180910390fd5b60006129548383600061190c565b9050600073ffffffffffffffffffffffffffffffffffffffff168173ffffffffffffffffffffffffffffffffffffffff16146129c85760006040517f73c6ac6e0000000000000000000000000000000000000000000000000000000081526004016129bf9190612e3b565b60405180910390fd5b505050565b600080600090507a184f03e93ff9f4daa797ed6e38ed64bf6a1f0100000000000000008310612a2b577a184f03e93ff9f4daa797ed6e38ed64bf6a1f0100000000000000008381612a2157612a20613804565b5b0492506040810190505b6d04ee2d6d415b85acef81000000008310612a68576d04ee2d6d415b85acef81000000008381612a5e57612a5d613804565b5b0492506020810190505b662386f26fc100008310612a9757662386f26fc100008381612a8d57612a8c613804565b5b0492506010810190505b6305f5e1008310612ac0576305f5e1008381612ab657612ab5613804565b5b0492506008810190505b6127108310612ae5576127108381612adb57612ada613804565b5b0492506004810190505b60648310612b085760648381612afe57612afd613804565b5b0492506002810190505b600a8310612b17576001810190505b80915050919050565b6000612b2a6121ca565b60000160089054906101000a900460ff16905090565b60007f01ffc9a7000000000000000000000000000000000000000000000000000000007bffffffffffffffffffffffffffffffffffffffffffffffffffffffff1916827bffffffffffffffffffffffffffffffffffffffffffffffffffffffff1916149050919050565b6000604051905090565b600080fd5b600080fd5b60007fffffffff0000000000000000000000000000000000000000000000000000000082169050919050565b612bf381612bbe565b8114612bfe57600080fd5b50565b600081359050612c1081612bea565b92915050565b600060208284031215612c2c57612c2b612bb4565b5b6000612c3a84828501612c01565b91505092915050565b60008115159050919050565b612c5881612c43565b82525050565b6000602082019050612c736000830184612c4f565b92915050565b600073ffffffffffffffffffffffffffffffffffffffff82169050919050565b6000612ca482612c79565b9050919050565b612cb481612c99565b8114612cbf57600080fd5b50565b600081359050612cd181612cab565b92915050565b6000819050919050565b612cea81612cd7565b8114612cf557600080fd5b50565b600081359050612d0781612ce1565b92915050565b60008060408385031215612d2457612d23612bb4565b5b6000612d3285828601612cc2565b9250506020612d4385828601612cf8565b9150509250929050565b600081519050919050565b600082825260208201905092915050565b60005b83811015612d87578082015181840152602081019050612d6c565b60008484015250505050565b6000601f19601f8301169050919050565b6000612daf82612d4d565b612db98185612d58565b9350612dc9818560208601612d69565b612dd281612d93565b840191505092915050565b60006020820190508181036000830152612df78184612da4565b905092915050565b600060208284031215612e1557612e14612bb4565b5b6000612e2384828501612cf8565b91505092915050565b612e3581612c99565b82525050565b6000602082019050612e506000830184612e2c565b92915050565b600060208284031215612e6c57612e6b612bb4565b5b6000612e7a84828501612cc2565b91505092915050565b600080600060608486031215612e9c57612e9b612bb4565b5b6000612eaa86828701612cc2565b9350506020612ebb86828701612cc2565b9250506040612ecc86828701612cf8565b9150509250925092565b6000819050919050565b612ee981612ed6565b8114612ef457600080fd5b50565b600081359050612f0681612ee0565b92915050565b600060208284031215612f2257612f21612bb4565b5b6000612f3084828501612ef7565b91505092915050565b612f4281612ed6565b82525050565b6000602082019050612f5d6000830184612f39565b92915050565b60008060408385031215612f7a57612f79612bb4565b5b6000612f8885828601612ef7565b9250506020612f9985828601612cc2565b9150509250929050565b60006bffffffffffffffffffffffff82169050919050565b612fc481612fa3565b82525050565b6000604082019050612fdf6000830185612e2c565b612fec6020830184612fbb565b9392505050565b612ffc81612cd7565b82525050565b60006020820190506130176000830184612ff3565b92915050565b600080fd5b600080fd5b7f4e487b7100000000000000000000000000000000000000000000000000000000600052604160045260246000fd5b61305f82612d93565b810181811067ffffffffffffffff8211171561307e5761307d613027565b5b80604052505050565b6000613091612baa565b905061309d8282613056565b919050565b600067ffffffffffffffff8211156130bd576130bc613027565b5b6130c682612d93565b9050602081019050919050565b82818337600083830152505050565b60006130f56130f0846130a2565b613087565b90508281526020810184848401111561311157613110613022565b5b61311c8482856130d3565b509392505050565b600082601f8301126131395761313861301d565b5b81356131498482602086016130e2565b91505092915050565b61315b81612fa3565b811461316657600080fd5b50565b60008135905061317881613152565b92915050565b60008060006060848603121561319757613196612bb4565b5b60006131a586828701612cc2565b935050602084013567ffffffffffffffff8111156131c6576131c5612bb9565b5b6131d286828701613124565b92505060406131e386828701613169565b9150509250925092565b6131f681612c43565b811461320157600080fd5b50565b600081359050613213816131ed565b92915050565b600080604083850312156132305761322f612bb4565b5b600061323e85828601612cc2565b925050602061324f85828601613204565b9150509250929050565b600067ffffffffffffffff82111561327457613273613027565b5b61327d82612d93565b9050602081019050919050565b600061329d61329884613259565b613087565b9050828152602081018484840111156132b9576132b8613022565b5b6132c48482856130d3565b509392505050565b600082601f8301126132e1576132e061301d565b5b81356132f184826020860161328a565b91505092915050565b6000806000806080858703121561331457613313612bb4565b5b600061332287828801612cc2565b945050602061333387828801612cc2565b935050604061334487828801612cf8565b925050606085013567ffffffffffffffff81111561336557613364612bb9565b5b613371878288016132cc565b91505092959194509250565b600061338882612c99565b9050919050565b6133988161337d565b81146133a357600080fd5b50565b6000813590506133b58161338f565b92915050565b600080600080608085870312156133d5576133d4612bb4565b5b60006133e387828801612cf8565b94505060206133f487828801612cc2565b9350506040613405878288016133a6565b925050606061341687828801612cf8565b91505092959194509250565b6000806040838503121561343957613438612bb4565b5b600061344785828601612cc2565b925050602061345885828601612cc2565b9150509250929050565b6000819050919050565b600061348761348261347d84612c79565b613462565b612c79565b9050919050565b60006134998261346c565b9050919050565b60006134ab8261348e565b9050919050565b6134bb816134a0565b82525050565b60006020820190506134d660008301846134b2565b92915050565b60006040820190506134f16000830185612e2c565b6134fe6020830184612ff3565b9392505050565b600081519050613514816131ed565b92915050565b6000602082840312156135305761352f612bb4565b5b600061353e84828501613505565b91505092915050565b7f4e487b7100000000000000000000000000000000000000000000000000000000600052602260045260246000fd5b6000600282049050600182168061358e57607f821691505b6020821081036135a1576135a0613547565b5b50919050565b60006060820190506135bc6000830186612e2c565b6135c96020830185612ff3565b6135d66040830184612e2c565b949350505050565b7f636f6e74657374207374696c6c20616374697665000000000000000000000000600082015250565b6000613614601483612d58565b915061361f826135de565b602082019050919050565b6000602082019050818103600083015261364381613607565b9050919050565b60008151905061365981612ce1565b92915050565b60006020828403121561367557613674612bb4565b5b60006136838482850161364a565b91505092915050565b7f696e73756666696369656e742072657761726420746f6b656e73000000000000600082015250565b60006136c2601a83612d58565b91506136cd8261368c565b602082019050919050565b600060208201905081810360008301526136f1816136b5565b9050919050565b7f4e487b7100000000000000000000000000000000000000000000000000000000600052603260045260246000fd5b7f7061727469636970616e7420616c726561647920726577617264656400000000600082015250565b600061375d601c83612d58565b915061376882613727565b602082019050919050565b6000602082019050818103600083015261378c81613750565b9050919050565b7f4e487b7100000000000000000000000000000000000000000000000000000000600052601160045260246000fd5b60006137cd82612cd7565b91506137d883612cd7565b92508282026137e681612cd7565b915082820484148315176137fd576137fc613793565b5b5092915050565b7f4e487b7100000000000000000000000000000000000000000000000000000000600052601260045260246000fd5b600061383e82612cd7565b915061384983612cd7565b92508261385957613858613804565b5b828204905092915050565b7f73636f72652065786365656473206c696d697400000000000000000000000000600082015250565b600061389a601383612d58565b91506138a582613864565b602082019050919050565b600060208201905081810360008301526138c98161388d565b9050919050565b7f6d617820737570706c7920726561636865640000000000000000000000000000600082015250565b6000613906601283612d58565b9150613911826138d0565b602082019050919050565b60006020820190508181036000830152613935816138f9565b9050919050565b7f696d61676555524920697320656d707479000000000000000000000000000000600082015250565b6000613972601183612d58565b915061397d8261393c565b602082019050919050565b600060208201905081810360008301526139a181613965565b9050919050565b60006139b382612cd7565b91506139be83612cd7565b92508282019050808211156139d6576139d5613793565b5b92915050565b60006020820190506139f16000830184612fbb565b92915050565b7f636f6e7465737420616c726561647920656e6465640000000000000000000000600082015250565b6000613a2d601583612d58565b9150613a38826139f7565b602082019050919050565b60006020820190508181036000830152613a5c81613a20565b9050919050565b600081905092915050565b6000613a7982612d4d565b613a838185613a63565b9350613a93818560208601612d69565b80840191505092915050565b6000613aab8285613a6e565b9150613ab78284613a6e565b91508190509392505050565b6000819050919050565b600067ffffffffffffffff82169050919050565b6000613afc613af7613af284613ac3565b613462565b613acd565b9050919050565b613b0c81613ae1565b82525050565b6000602082019050613b276000830184613b03565b92915050565b60008190508160005260206000209050919050565b60006020601f8301049050919050565b600082821b905092915050565b600060088302613b8f7fffffffffffffffffffffffffffffffffffffffffffffffffffffffffffffffff82613b52565b613b998683613b52565b95508019841693508086168417925050509392505050565b6000613bcc613bc7613bc284612cd7565b613462565b612cd7565b9050919050565b6000819050919050565b613be683613bb1565b613bfa613bf282613bd3565b848454613b5f565b825550505050565b600090565b613c0f613c02565b613c1a818484613bdd565b505050565b5b81811015613c3e57613c33600082613c07565b600181019050613c20565b5050565b601f821115613c8357613c5481613b2d565b613c5d84613b42565b81016020851015613c6c578190505b613c80613c7885613b42565b830182613c1f565b50505b505050565b600082821c905092915050565b6000613ca660001984600802613c88565b1980831691505092915050565b6000613cbf8383613c95565b9150826002028217905092915050565b613cd882612d4d565b67ffffffffffffffff811115613cf157613cf0613027565b5b613cfb8254613576565b613d06828285613c42565b600060209050601f831160018114613d395760008415613d27578287015190505b613d318582613cb3565b865550613d99565b601f198416613d4786613b2d565b60005b82811015613d6f57848901518255600182019150602085019450602081019050613d4a565b86831015613d8c5784890151613d88601f891682613c95565b8355505b6001600288020188555050505b505050505050565b600081519050919050565b600082825260208201905092915050565b6000613dc882613da1565b613dd28185613dac565b9350613de2818560208601612d69565b613deb81612d93565b840191505092915050565b6000608082019050613e0b6000830187612e2c565b613e186020830186612e2c565b613e256040830185612ff3565b8181036060830152613e378184613dbd565b905095945050505050565b600081519050613e5181612bea565b92915050565b600060208284031215613e6d57613e6c612bb4565b5b6000613e7b84828501613e42565b91505092915050565b6000604082019050613e996000830185612e2c565b613ea66020830184612f39565b939250505056fea2646970667358221220b01fff52c273d59cc5f6f47da7597978fea84ab600d4ba15f534368107c8976c64736f6c63430008180033",
  "linkReferences": {},
  "deployedLinkReferences": {}
}