{
  "_format": "hh-sol-artifact-1",
  "contractName": "MomentFactory",
  "sourceName": "contracts/MomentFactory.sol",
  "abi": [
    {
      "inputs": [
        {
          "internalType": "address",
          "name": "_implementation",
          "type": "address"
        }
      ],
      "stateMutability": "nonpayable",
      "type": "constructor"
    },
    {
      "inputs": [],
      "name": "ERC1167FailedCreateClone",
      "type": "error"
    },
    {
      "inputs": [
        {
          "internalType": "uint256",
          "name": "maxSupply",
          "type": "uint256"
        },
        {
          "internalType": "address",
          "name": "admin",
          "type": "address"
        },
        {
          "internalType": "contract IERC20",
          "name": "rewardToken",
          "type": "address"
        },
        {
          "internalType": "uint256",
          "name": "totalReward",
          "type": "uint256"
        },
        {
          "internalType": "address",
          "name": "deployer",
          "type": "address"
        }
      ],
      "name": "createBounty",
      "outputs": [
        {
          "internalType": "address",
          "name": "",
          "type": "address"
        }
      ],
      "stateMutability": "nonpayable",
      "type": "function"
    },
    {
      "inputs": [],
      "name": "implementation",
      "outputs": [
        {
          "internalType": "address",
          "name": "",
          "type": "address"
        }
      ],
      "stateMutability": "view",
      "type": "function"
    }
  ],
  "bytecode": "0x60a060405234801561001057600080fd5b506040516106a83803806106a8833981810160405281019061003291906100cf565b8073ffffffffffffffffffffffffffffffffffffffff1660808173ffffffffffffffffffffffffffffffffffffffff1681525050506100fc565b600080fd5b600073ffffffffffffffffffffffffffffffffffffffff82169050919050565b600061009c82610071565b9050919050565b6100ac81610091565b81146100b757600080fd5b50565b6000815190506100c9816100a3565b92915050565b6000602082840312156100e5576100e461006c565b5b60006100f3848285016100ba565b91505092915050565b60805161058c61011c60003960008181608b015260b5015261058c6000f3fe608060405234801561001057600080fd5b50600436106100365760003560e01c80635c60da1b1461003b5780637a28776414610059575b600080fd5b610043610089565b60405161005091906102cc565b60405180910390f35b610073600480360381019061006e919061038c565b6100ad565b60405161008091906102cc565b60405180910390f35b7f000000000000000000000000000000000000000000000000000000000000000081565b6000806100d97f00000000000000000000000000000000000000000000000000000000000000006101da565b90508073ffffffffffffffffffffffffffffffffffffffff1663e37259e9888888886040518563ffffffff1660e01b815260040161011a9493929190610475565b600060405180830381600087803b15801561013457600080fd5b505af1158015610148573d6000803e3d6000fd5b505050508473ffffffffffffffffffffffffffffffffffffffff166323b872dd8483876040518463ffffffff1660e01b8152600401610189939291906104ba565b6020604051808303816000875af11580156101a8573d6000803e3d6000fd5b505050506040513d601f19601f820116820180604052508101906101cc9190610529565b508091505095945050505050565b6000763d602d80600a3d3981f3363d3d373d3d3d363d730000008260601b60e81c176000526e5af43d82803e903d91602b57fd5bf38260781b17602052603760096000f09050600073ffffffffffffffffffffffffffffffffffffffff168173ffffffffffffffffffffffffffffffffffffffff1603610286576040517fc2f868f400000000000000000000000000000000000000000000000000000000815260040160405180910390fd5b919050565b600073ffffffffffffffffffffffffffffffffffffffff82169050919050565b60006102b68261028b565b9050919050565b6102c6816102ab565b82525050565b60006020820190506102e160008301846102bd565b92915050565b600080fd5b6000819050919050565b6102ff816102ec565b811461030a57600080fd5b50565b60008135905061031c816102f6565b92915050565b61032b816102ab565b811461033657600080fd5b50565b60008135905061034881610322565b92915050565b6000610359826102ab565b9050919050565b6103698161034e565b811461037457600080fd5b50565b60008135905061038681610360565b92915050565b600080600080600060a086880312156103a8576103a76102e7565b5b60006103b68882890161030d565b95505060206103c788828901610339565b94505060406103d888828901610377565b93505060606103e98882890161030d565b92505060806103fa88828901610339565b9150509295509295909350565b610410816102ec565b82525050565b6000819050919050565b600061043b6104366104318461028b565b610416565b61028b565b9050919050565b600061044d82610420565b9050919050565b600061045f82610442565b9050919050565b61046f81610454565b82525050565b600060808201905061048a6000830187610407565b61049760208301866102bd565b6104a46040830185610466565b6104b16060830184610407565b95945050505050565b60006060820190506104cf60008301866102bd565b6104dc60208301856102bd565b6104e96040830184610407565b949350505050565b60008115159050919050565b610506816104f1565b811461051157600080fd5b50565b600081519050610523816104fd565b92915050565b60006020828403121561053f5761053e6102e7565b5b600061054d84828501610514565b9150509291505056fea26469706673582212204b53b3aa90da813dfb6417078fd7f571c21bb9829c64075e8cb73ce4ae4508d064736f6c63430008180033",
  "linkReferences": {},
  "deployedLinkReferences": {}
}